{
  "_format": "hh-sol-artifact-1",
  "contractName": "DGNToken",
  "sourceName": "contracts/DGNToken.sol",
  "abi": [
    {
      "inputs": [],
      "stateMutability": "nonpayable",
      "type": "constructor"
    },
    {
      "anonymous": false,
      "inputs": [
        {
          "indexed": true,
          "internalType": "address",
          "name": "owner",
          "type": "address"
        },
        {
          "indexed": true,
          "internalType": "address",
          "name": "spender",
          "type": "address"
        },
        {
          "indexed": false,
          "internalType": "uint256",
          "name": "value",
          "type": "uint256"
        }
      ],
      "name": "Approval",
      "type": "event"
    },
    {
      "anonymous": false,
      "inputs": [
        {
          "indexed": true,
          "internalType": "address",
          "name": "previousOwner",
          "type": "address"
        },
        {
          "indexed": true,
          "internalType": "address",
          "name": "newOwner",
          "type": "address"
        }
      ],
      "name": "OwnershipTransferred",
      "type": "event"
    },
    {
      "anonymous": false,
      "inputs": [
        {
          "indexed": true,
          "internalType": "address",
          "name": "from",
          "type": "address"
        },
        {
          "indexed": true,
          "internalType": "address",
          "name": "to",
          "type": "address"
        },
        {
          "indexed": false,
          "internalType": "uint256",
          "name": "value",
          "type": "uint256"
        }
      ],
      "name": "Transfer",
      "type": "event"
    },
    {
      "inputs": [
        {
          "internalType": "address",
          "name": "owner",
          "type": "address"
        },
        {
          "internalType": "address",
          "name": "spender",
          "type": "address"
        }
      ],
      "name": "allowance",
      "outputs": [
        {
          "internalType": "uint256",
          "name": "",
          "type": "uint256"
        }
      ],
      "stateMutability": "view",
      "type": "function"
    },
    {
      "inputs": [
        {
          "internalType": "address",
          "name": "spender",
          "type": "address"
        },
        {
          "internalType": "uint256",
          "name": "amount",
          "type": "uint256"
        }
      ],
      "name": "approve",
      "outputs": [
        {
          "internalType": "bool",
          "name": "",
          "type": "bool"
        }
      ],
      "stateMutability": "nonpayable",
      "type": "function"
    },
    {
      "inputs": [
        {
          "internalType": "address",
          "name": "account",
          "type": "address"
        }
      ],
      "name": "balanceOf",
      "outputs": [
        {
          "internalType": "uint256",
          "name": "",
          "type": "uint256"
        }
      ],
      "stateMutability": "view",
      "type": "function"
    },
    {
      "inputs": [
        {
          "internalType": "uint256",
          "name": "_value",
          "type": "uint256"
        }
      ],
      "name": "burnTokens",
      "outputs": [],
      "stateMutability": "nonpayable",
      "type": "function"
    },
    {
      "inputs": [
        {
          "internalType": "uint8",
          "name": "_itemNumber",
          "type": "uint8"
        }
      ],
      "name": "buyItem",
      "outputs": [
        {
          "internalType": "bool",
          "name": "",
          "type": "bool"
        }
      ],
      "stateMutability": "payable",
      "type": "function"
    },
    {
      "inputs": [],
      "name": "checkBalance",
      "outputs": [
        {
          "internalType": "uint256",
          "name": "",
          "type": "uint256"
        }
      ],
      "stateMutability": "view",
      "type": "function"
    },
    {
      "inputs": [],
      "name": "checkShopInventory",
      "outputs": [
        {
          "internalType": "string",
          "name": "",
          "type": "string"
        }
      ],
      "stateMutability": "pure",
      "type": "function"
    },
    {
      "inputs": [
        {
          "internalType": "address",
          "name": "usr",
          "type": "address"
        }
      ],
      "name": "checkUserBalance",
      "outputs": [
        {
          "internalType": "uint256",
          "name": "",
          "type": "uint256"
        }
      ],
      "stateMutability": "view",
      "type": "function"
    },
    {
      "inputs": [],
      "name": "decimals",
      "outputs": [
        {
          "internalType": "uint8",
          "name": "",
          "type": "uint8"
        }
      ],
      "stateMutability": "view",
      "type": "function"
    },
    {
      "inputs": [
        {
          "internalType": "address",
          "name": "spender",
          "type": "address"
        },
        {
          "internalType": "uint256",
          "name": "subtractedValue",
          "type": "uint256"
        }
      ],
      "name": "decreaseAllowance",
      "outputs": [
        {
          "internalType": "bool",
          "name": "",
          "type": "bool"
        }
      ],
      "stateMutability": "nonpayable",
      "type": "function"
    },
    {
      "inputs": [
        {
          "internalType": "address",
          "name": "spender",
          "type": "address"
        },
        {
          "internalType": "uint256",
          "name": "addedValue",
          "type": "uint256"
        }
      ],
      "name": "increaseAllowance",
      "outputs": [
        {
          "internalType": "bool",
          "name": "",
          "type": "bool"
        }
      ],
      "stateMutability": "nonpayable",
      "type": "function"
    },
    {
      "inputs": [
        {
          "internalType": "address",
          "name": "to",
          "type": "address"
        },
        {
          "internalType": "uint256",
          "name": "amount",
          "type": "uint256"
        }
      ],
      "name": "mintTokens",
      "outputs": [],
      "stateMutability": "nonpayable",
      "type": "function"
    },
    {
      "inputs": [],
      "name": "name",
      "outputs": [
        {
          "internalType": "string",
          "name": "",
          "type": "string"
        }
      ],
      "stateMutability": "view",
      "type": "function"
    },
    {
      "inputs": [],
      "name": "owner",
      "outputs": [
        {
          "internalType": "address",
          "name": "",
          "type": "address"
        }
      ],
      "stateMutability": "view",
      "type": "function"
    },
    {
      "inputs": [],
      "name": "renounceOwnership",
      "outputs": [],
      "stateMutability": "nonpayable",
      "type": "function"
    },
    {
      "inputs": [],
      "name": "symbol",
      "outputs": [
        {
          "internalType": "string",
          "name": "",
          "type": "string"
        }
      ],
      "stateMutability": "view",
      "type": "function"
    },
    {
      "inputs": [],
      "name": "totalSupply",
      "outputs": [
        {
          "internalType": "uint256",
          "name": "",
          "type": "uint256"
        }
      ],
      "stateMutability": "view",
      "type": "function"
    },
    {
      "inputs": [
        {
          "internalType": "address",
          "name": "to",
          "type": "address"
        },
        {
          "internalType": "uint256",
          "name": "amount",
          "type": "uint256"
        }
      ],
      "name": "transfer",
      "outputs": [
        {
          "internalType": "bool",
          "name": "",
          "type": "bool"
        }
      ],
      "stateMutability": "nonpayable",
      "type": "function"
    },
    {
      "inputs": [
        {
          "internalType": "address",
          "name": "from",
          "type": "address"
        },
        {
          "internalType": "address",
          "name": "to",
          "type": "address"
        },
        {
          "internalType": "uint256",
          "name": "amount",
          "type": "uint256"
        }
      ],
      "name": "transferFrom",
      "outputs": [
        {
          "internalType": "bool",
          "name": "",
          "type": "bool"
        }
      ],
      "stateMutability": "nonpayable",
      "type": "function"
    },
    {
      "inputs": [
        {
          "internalType": "address",
          "name": "newOwner",
          "type": "address"
        }
      ],
      "name": "transferOwnership",
      "outputs": [],
      "stateMutability": "nonpayable",
      "type": "function"
    },
    {
      "inputs": [
        {
          "internalType": "address",
          "name": "_receiver",
          "type": "address"
        },
        {
          "internalType": "uint256",
          "name": "_value",
          "type": "uint256"
        }
      ],
      "name": "transferTokens",
      "outputs": [],
      "stateMutability": "nonpayable",
      "type": "function"
    }
  ],
  "bytecode": "0x60806040523480156200001157600080fd5b506040518060400160405280600581526020017f446567656e0000000000000000000000000000000000000000000000000000008152506040518060400160405280600381526020017f44474e000000000000000000000000000000000000000000000000000000000081525081600390816200008f919062000412565b508060049081620000a1919062000412565b505050620000c4620000b8620000ca60201b60201c565b620000d260201b60201c565b620004f9565b600033905090565b6000600560009054906101000a900473ffffffffffffffffffffffffffffffffffffffff16905081600560006101000a81548173ffffffffffffffffffffffffffffffffffffffff021916908373ffffffffffffffffffffffffffffffffffffffff1602179055508173ffffffffffffffffffffffffffffffffffffffff168173ffffffffffffffffffffffffffffffffffffffff167f8be0079c531659141344cd1fd0a4f28419497f9722a3daafe3b4186f6b6457e060405160405180910390a35050565b600081519050919050565b7f4e487b7100000000000000000000000000000000000000000000000000000000600052604160045260246000fd5b7f4e487b7100000000000000000000000000000000000000000000000000000000600052602260045260246000fd5b600060028204905060018216806200021a57607f821691505b60208210810362000230576200022f620001d2565b5b50919050565b60008190508160005260206000209050919050565b60006020601f8301049050919050565b600082821b905092915050565b6000600883026200029a7fffffffffffffffffffffffffffffffffffffffffffffffffffffffffffffffff826200025b565b620002a686836200025b565b95508019841693508086168417925050509392505050565b6000819050919050565b6000819050919050565b6000620002f3620002ed620002e784620002be565b620002c8565b620002be565b9050919050565b6000819050919050565b6200030f83620002d2565b620003276200031e82620002fa565b84845462000268565b825550505050565b600090565b6200033e6200032f565b6200034b81848462000304565b505050565b5b8181101562000373576200036760008262000334565b60018101905062000351565b5050565b601f821115620003c2576200038c8162000236565b62000397846200024b565b81016020851015620003a7578190505b620003bf620003b6856200024b565b83018262000350565b50505b505050565b600082821c905092915050565b6000620003e760001984600802620003c7565b1980831691505092915050565b6000620004028383620003d4565b9150826002028217905092915050565b6200041d8262000198565b67ffffffffffffffff811115620004395762000438620001a3565b5b62000445825462000201565b6200045282828562000377565b600060209050601f8311600181146200048a576000841562000475578287015190505b620004818582620003f4565b865550620004f1565b601f1984166200049a8662000236565b60005b82811015620004c4578489015182556001820191506020850194506020810190506200049d565b86831015620004e45784890151620004e0601f891682620003d4565b8355505b6001600288020188555050505b505050505050565b612acf80620005096000396000f3fe60806040526004361061012a5760003560e01c8063715018a6116100ab578063bec3fa171161006f578063bec3fa171461041c578063c71daccb14610445578063dd62ed3e14610470578063ecb4da5a146104ad578063f0dda65c146104dd578063f2fde38b146105065761012a565b8063715018a6146103355780638da5cb5b1461034c57806395d89b4114610377578063a457c2d7146103a2578063a9059cbb146103df5761012a565b806323b872dd116100f257806323b872dd1461022a578063313ce5671461026757806339509351146102925780636d1b229d146102cf57806370a08231146102f85761012a565b806306fdde031461012f578063095ea7b31461015a5780630a9bfef5146101975780630c83b30d146101d457806318160ddd146101ff575b600080fd5b34801561013b57600080fd5b5061014461052f565b6040516101519190611d0f565b60405180910390f35b34801561016657600080fd5b50610181600480360381019061017c9190611dca565b6105c1565b60405161018e9190611e25565b60405180910390f35b3480156101a357600080fd5b506101be60048036038101906101b99190611e40565b6105e4565b6040516101cb9190611e7c565b60405180910390f35b3480156101e057600080fd5b506101e961066f565b6040516101f69190611d0f565b60405180910390f35b34801561020b57600080fd5b50610214610824565b6040516102219190611e7c565b60405180910390f35b34801561023657600080fd5b50610251600480360381019061024c9190611e97565b61082e565b60405161025e9190611e25565b60405180910390f35b34801561027357600080fd5b5061027c61085d565b6040516102899190611f06565b60405180910390f35b34801561029e57600080fd5b506102b960048036038101906102b49190611dca565b610866565b6040516102c69190611e25565b60405180910390f35b3480156102db57600080fd5b506102f660048036038101906102f19190611f21565b61089d565b005b34801561030457600080fd5b5061031f600480360381019061031a9190611e40565b6108f5565b60405161032c9190611e7c565b60405180910390f35b34801561034157600080fd5b5061034a61093d565b005b34801561035857600080fd5b50610361610951565b60405161036e9190611f5d565b60405180910390f35b34801561038357600080fd5b5061038c61097b565b6040516103999190611d0f565b60405180910390f35b3480156103ae57600080fd5b506103c960048036038101906103c49190611dca565b610a0d565b6040516103d69190611e25565b60405180910390f35b3480156103eb57600080fd5b5061040660048036038101906104019190611dca565b610a84565b6040516104139190611e25565b60405180910390f35b34801561042857600080fd5b50610443600480360381019061043e9190611dca565b610aa7565b005b34801561045157600080fd5b5061045a610b0d565b6040516104679190611e7c565b60405180910390f35b34801561047c57600080fd5b5061049760048036038101906104929190611f78565b610b8e565b6040516104a49190611e7c565b60405180910390f35b6104c760048036038101906104c29190611fe4565b610c15565b6040516104d49190611e25565b60405180910390f35b3480156104e957600080fd5b5061050460048036038101906104ff9190611dca565b6111b9565b005b34801561051257600080fd5b5061052d60048036038101906105289190611e40565b6111cf565b005b60606003805461053e90612040565b80601f016020809104026020016040519081016040528092919081815260200182805461056a90612040565b80156105b75780601f1061058c576101008083540402835291602001916105b7565b820191906000526020600020905b81548152906001019060200180831161059a57829003601f168201915b5050505050905090565b6000806105cc611252565b90506105d981858561125a565b600191505092915050565b60006105ee611423565b3073ffffffffffffffffffffffffffffffffffffffff166370a08231836040518263ffffffff1660e01b81526004016106279190611f5d565b602060405180830381865afa158015610644573d6000803e3d6000fd5b505050506040513d601f19601f820116820180604052508101906106689190612086565b9050919050565b60606106af6040518060400160405280601681526020017f57656c636f6d6520746f20444547454e2053686f7021000000000000000000008152506114a1565b6106d06040518060600160405280602381526020016128c6602391396114a1565b61070e6040518060400160405280601481526020017f3120457863616c6962757220202020323044474e0000000000000000000000008152506114a1565b61074c6040518060400160405280601481526020017f322057756d70757320202020202020313044474e0000000000000000000000008152506114a1565b61078a6040518060400160405280601481526020017f332044474e20417661746172202020203544474e0000000000000000000000008152506114a1565b6107c86040518060400160405280601481526020017f342043616464792041766174617220203344474e0000000000000000000000008152506114a1565b6108066040518060400160405280601481526020017f352053746172746572205061636b20203244474e0000000000000000000000008152506114a1565b6040518060e0016040528060a381526020016129b060a39139905090565b6000600254905090565b600080610839611252565b905061084685828561153a565b6108518585856115c6565b60019150509392505050565b60006012905090565b600080610871611252565b90506108928185856108838589610b8e565b61088d91906120e2565b61125a565b600191505092915050565b806108a7336108f5565b10156108e8576040517f08c379a00000000000000000000000000000000000000000000000000000000081526004016108df90612162565b60405180910390fd5b6108f2338261183c565b50565b60008060008373ffffffffffffffffffffffffffffffffffffffff1673ffffffffffffffffffffffffffffffffffffffff168152602001908152602001600020549050919050565b610945611423565b61094f6000611a09565b565b6000600560009054906101000a900473ffffffffffffffffffffffffffffffffffffffff16905090565b60606004805461098a90612040565b80601f01602080910402602001604051908101604052809291908181526020018280546109b690612040565b8015610a035780601f106109d857610100808354040283529160200191610a03565b820191906000526020600020905b8154815290600101906020018083116109e657829003601f168201915b5050505050905090565b600080610a18611252565b90506000610a268286610b8e565b905083811015610a6b576040517f08c379a0000000000000000000000000000000000000000000000000000000008152600401610a62906121f4565b60405180910390fd5b610a78828686840361125a565b60019250505092915050565b600080610a8f611252565b9050610a9c8185856115c6565b600191505092915050565b80610ab1336108f5565b1015610af2576040517f08c379a0000000000000000000000000000000000000000000000000000000008152600401610ae990612162565b60405180910390fd5b610afc33826105c1565b50610b0833838361082e565b505050565b60003073ffffffffffffffffffffffffffffffffffffffff166370a08231336040518263ffffffff1660e01b8152600401610b489190611f5d565b602060405180830381865afa158015610b65573d6000803e3d6000fd5b505050506040513d601f19601f82011682018060405250810190610b899190612086565b905090565b6000600160008473ffffffffffffffffffffffffffffffffffffffff1673ffffffffffffffffffffffffffffffffffffffff16815260200190815260200160002060008373ffffffffffffffffffffffffffffffffffffffff1673ffffffffffffffffffffffffffffffffffffffff16815260200190815260200160002054905092915050565b600060018260ff1603610d295760143073ffffffffffffffffffffffffffffffffffffffff166370a08231336040518263ffffffff1660e01b8152600401610c5d9190611f5d565b602060405180830381865afa158015610c7a573d6000803e3d6000fd5b505050506040513d601f19601f82011682018060405250810190610c9e9190612086565b1015610cdf576040517f08c379a0000000000000000000000000000000000000000000000000000000008152600401610cd690612260565b60405180910390fd5b610cea3360146105c1565b50610cfe33610cf7610951565b601461082e565b50610d20604051806080016040528060498152602001612925604991396114a1565b600190506111b4565b60028260ff1603610e3b57600a3073ffffffffffffffffffffffffffffffffffffffff166370a08231336040518263ffffffff1660e01b8152600401610d6f9190611f5d565b602060405180830381865afa158015610d8c573d6000803e3d6000fd5b505050506040513d601f19601f82011682018060405250810190610db09190612086565b1015610df1576040517f08c379a0000000000000000000000000000000000000000000000000000000008152600401610de890612260565b60405180910390fd5b610dfc33600a6105c1565b50610e1033610e09610951565b600a61082e565b50610e326040518060600160405280603c81526020016128e9603c91396114a1565b600190506111b4565b60038260ff1603610f4d5760053073ffffffffffffffffffffffffffffffffffffffff166370a08231336040518263ffffffff1660e01b8152600401610e819190611f5d565b602060405180830381865afa158015610e9e573d6000803e3d6000fd5b505050506040513d601f19601f82011682018060405250810190610ec29190612086565b1015610f03576040517f08c379a0000000000000000000000000000000000000000000000000000000008152600401610efa90612260565b60405180910390fd5b610f0e3360056105c1565b50610f2233610f1b610951565b600561082e565b50610f44604051806080016040528060478152602001612a53604791396114a1565b600190506111b4565b60048260ff160361105f5760033073ffffffffffffffffffffffffffffffffffffffff166370a08231336040518263ffffffff1660e01b8152600401610f939190611f5d565b602060405180830381865afa158015610fb0573d6000803e3d6000fd5b505050506040513d601f19601f82011682018060405250810190610fd49190612086565b1015611015576040517f08c379a000000000000000000000000000000000000000000000000000000000815260040161100c90612260565b60405180910390fd5b6110203360036105c1565b506110343361102d610951565b600361082e565b50611056604051806080016040528060428152602001612884604291396114a1565b600190506111b4565b60058260ff16036111715760023073ffffffffffffffffffffffffffffffffffffffff166370a08231336040518263ffffffff1660e01b81526004016110a59190611f5d565b602060405180830381865afa1580156110c2573d6000803e3d6000fd5b505050506040513d601f19601f820116820180604052508101906110e69190612086565b1015611127576040517f08c379a000000000000000000000000000000000000000000000000000000000815260040161111e90612260565b60405180910390fd5b6111323360026105c1565b506111463361113f610951565b600261082e565b5061116860405180608001604052806042815260200161296e604291396114a1565b600190506111b4565b6111af6040518060400160405280601b81526020017f506c656173652063686f6f736520612076616c6964206974656d2100000000008152506114a1565b600090505b919050565b6111c1611423565b6111cb8282611acf565b5050565b6111d7611423565b600073ffffffffffffffffffffffffffffffffffffffff168173ffffffffffffffffffffffffffffffffffffffff1603611246576040517f08c379a000000000000000000000000000000000000000000000000000000000815260040161123d906122f2565b60405180910390fd5b61124f81611a09565b50565b600033905090565b600073ffffffffffffffffffffffffffffffffffffffff168373ffffffffffffffffffffffffffffffffffffffff16036112c9576040517f08c379a00000000000000000000000000000000000000000000000000000000081526004016112c090612384565b60405180910390fd5b600073ffffffffffffffffffffffffffffffffffffffff168273ffffffffffffffffffffffffffffffffffffffff1603611338576040517f08c379a000000000000000000000000000000000000000000000000000000000815260040161132f90612416565b60405180910390fd5b80600160008573ffffffffffffffffffffffffffffffffffffffff1673ffffffffffffffffffffffffffffffffffffffff16815260200190815260200160002060008473ffffffffffffffffffffffffffffffffffffffff1673ffffffffffffffffffffffffffffffffffffffff168152602001908152602001600020819055508173ffffffffffffffffffffffffffffffffffffffff168373ffffffffffffffffffffffffffffffffffffffff167f8c5be1e5ebec7d5bd14f71427d1e84f3dd0314c0f7b2291e5b200ac8c7c3b925836040516114169190611e7c565b60405180910390a3505050565b61142b611252565b73ffffffffffffffffffffffffffffffffffffffff16611449610951565b73ffffffffffffffffffffffffffffffffffffffff161461149f576040517f08c379a000000000000000000000000000000000000000000000000000000000815260040161149690612482565b60405180910390fd5b565b611537816040516024016114b59190611d0f565b6040516020818303038152906040527f41304fac000000000000000000000000000000000000000000000000000000007bffffffffffffffffffffffffffffffffffffffffffffffffffffffff19166020820180517bffffffffffffffffffffffffffffffffffffffffffffffffffffffff8381831617835250505050611c25565b50565b60006115468484610b8e565b90507fffffffffffffffffffffffffffffffffffffffffffffffffffffffffffffffff81146115c057818110156115b2576040517f08c379a00000000000000000000000000000000000000000000000000000000081526004016115a9906124ee565b60405180910390fd5b6115bf848484840361125a565b5b50505050565b600073ffffffffffffffffffffffffffffffffffffffff168373ffffffffffffffffffffffffffffffffffffffff1603611635576040517f08c379a000000000000000000000000000000000000000000000000000000000815260040161162c90612580565b60405180910390fd5b600073ffffffffffffffffffffffffffffffffffffffff168273ffffffffffffffffffffffffffffffffffffffff16036116a4576040517f08c379a000000000000000000000000000000000000000000000000000000000815260040161169b90612612565b60405180910390fd5b6116af838383611c3f565b60008060008573ffffffffffffffffffffffffffffffffffffffff1673ffffffffffffffffffffffffffffffffffffffff16815260200190815260200160002054905081811015611735576040517f08c379a000000000000000000000000000000000000000000000000000000000815260040161172c906126a4565b60405180910390fd5b8181036000808673ffffffffffffffffffffffffffffffffffffffff1673ffffffffffffffffffffffffffffffffffffffff16815260200190815260200160002081905550816000808573ffffffffffffffffffffffffffffffffffffffff1673ffffffffffffffffffffffffffffffffffffffff168152602001908152602001600020600082825401925050819055508273ffffffffffffffffffffffffffffffffffffffff168473ffffffffffffffffffffffffffffffffffffffff167fddf252ad1be2c89b69c2b068fc378daa952ba7f163c4a11628f55a4df523b3ef846040516118239190611e7c565b60405180910390a3611836848484611c44565b50505050565b600073ffffffffffffffffffffffffffffffffffffffff168273ffffffffffffffffffffffffffffffffffffffff16036118ab576040517f08c379a00000000000000000000000000000000000000000000000000000000081526004016118a290612736565b60405180910390fd5b6118b782600083611c3f565b60008060008473ffffffffffffffffffffffffffffffffffffffff1673ffffffffffffffffffffffffffffffffffffffff1681526020019081526020016000205490508181101561193d576040517f08c379a0000000000000000000000000000000000000000000000000000000008152600401611934906127c8565b60405180910390fd5b8181036000808573ffffffffffffffffffffffffffffffffffffffff1673ffffffffffffffffffffffffffffffffffffffff1681526020019081526020016000208190555081600260008282540392505081905550600073ffffffffffffffffffffffffffffffffffffffff168373ffffffffffffffffffffffffffffffffffffffff167fddf252ad1be2c89b69c2b068fc378daa952ba7f163c4a11628f55a4df523b3ef846040516119f09190611e7c565b60405180910390a3611a0483600084611c44565b505050565b6000600560009054906101000a900473ffffffffffffffffffffffffffffffffffffffff16905081600560006101000a81548173ffffffffffffffffffffffffffffffffffffffff021916908373ffffffffffffffffffffffffffffffffffffffff1602179055508173ffffffffffffffffffffffffffffffffffffffff168173ffffffffffffffffffffffffffffffffffffffff167f8be0079c531659141344cd1fd0a4f28419497f9722a3daafe3b4186f6b6457e060405160405180910390a35050565b600073ffffffffffffffffffffffffffffffffffffffff168273ffffffffffffffffffffffffffffffffffffffff1603611b3e576040517f08c379a0000000000000000000000000000000000000000000000000000000008152600401611b3590612834565b60405180910390fd5b611b4a60008383611c3f565b8060026000828254611b5c91906120e2565b92505081905550806000808473ffffffffffffffffffffffffffffffffffffffff1673ffffffffffffffffffffffffffffffffffffffff168152602001908152602001600020600082825401925050819055508173ffffffffffffffffffffffffffffffffffffffff16600073ffffffffffffffffffffffffffffffffffffffff167fddf252ad1be2c89b69c2b068fc378daa952ba7f163c4a11628f55a4df523b3ef83604051611c0d9190611e7c565b60405180910390a3611c2160008383611c44565b5050565b611c3c81611c34611c49611c6a565b63ffffffff16565b50565b505050565b505050565b60006a636f6e736f6c652e6c6f679050600080835160208501845afa505050565b611c75819050919050565b611c7d612854565b565b600081519050919050565b600082825260208201905092915050565b60005b83811015611cb9578082015181840152602081019050611c9e565b60008484015250505050565b6000601f19601f8301169050919050565b6000611ce182611c7f565b611ceb8185611c8a565b9350611cfb818560208601611c9b565b611d0481611cc5565b840191505092915050565b60006020820190508181036000830152611d298184611cd6565b905092915050565b600080fd5b600073ffffffffffffffffffffffffffffffffffffffff82169050919050565b6000611d6182611d36565b9050919050565b611d7181611d56565b8114611d7c57600080fd5b50565b600081359050611d8e81611d68565b92915050565b6000819050919050565b611da781611d94565b8114611db257600080fd5b50565b600081359050611dc481611d9e565b92915050565b60008060408385031215611de157611de0611d31565b5b6000611def85828601611d7f565b9250506020611e0085828601611db5565b9150509250929050565b60008115159050919050565b611e1f81611e0a565b82525050565b6000602082019050611e3a6000830184611e16565b92915050565b600060208284031215611e5657611e55611d31565b5b6000611e6484828501611d7f565b91505092915050565b611e7681611d94565b82525050565b6000602082019050611e916000830184611e6d565b92915050565b600080600060608486031215611eb057611eaf611d31565b5b6000611ebe86828701611d7f565b9350506020611ecf86828701611d7f565b9250506040611ee086828701611db5565b9150509250925092565b600060ff82169050919050565b611f0081611eea565b82525050565b6000602082019050611f1b6000830184611ef7565b92915050565b600060208284031215611f3757611f36611d31565b5b6000611f4584828501611db5565b91505092915050565b611f5781611d56565b82525050565b6000602082019050611f726000830184611f4e565b92915050565b60008060408385031215611f8f57611f8e611d31565b5b6000611f9d85828601611d7f565b9250506020611fae85828601611d7f565b9150509250929050565b611fc181611eea565b8114611fcc57600080fd5b50565b600081359050611fde81611fb8565b92915050565b600060208284031215611ffa57611ff9611d31565b5b600061200884828501611fcf565b91505092915050565b7f4e487b7100000000000000000000000000000000000000000000000000000000600052602260045260246000fd5b6000600282049050600182168061205857607f821691505b60208210810361206b5761206a612011565b5b50919050565b60008151905061208081611d9e565b92915050565b60006020828403121561209c5761209b611d31565b5b60006120aa84828501612071565b91505092915050565b7f4e487b7100000000000000000000000000000000000000000000000000000000600052601160045260246000fd5b60006120ed82611d94565b91506120f883611d94565b92508282019050808211156121105761210f6120b3565b5b92915050565b7f596f7520646f206e6f74206861766520656e6f75676820746f6b656e73000000600082015250565b600061214c601d83611c8a565b915061215782612116565b602082019050919050565b6000602082019050818103600083015261217b8161213f565b9050919050565b7f45524332303a2064656372656173656420616c6c6f77616e63652062656c6f7760008201527f207a65726f000000000000000000000000000000000000000000000000000000602082015250565b60006121de602583611c8a565b91506121e982612182565b604082019050919050565b6000602082019050818103600083015261220d816121d1565b9050919050565b7f596f75206e656564206d6f726520746f6b656e73210000000000000000000000600082015250565b600061224a601583611c8a565b915061225582612214565b602082019050919050565b600060208201905081810360008301526122798161223d565b9050919050565b7f4f776e61626c653a206e6577206f776e657220697320746865207a65726f206160008201527f6464726573730000000000000000000000000000000000000000000000000000602082015250565b60006122dc602683611c8a565b91506122e782612280565b604082019050919050565b6000602082019050818103600083015261230b816122cf565b9050919050565b7f45524332303a20617070726f76652066726f6d20746865207a65726f2061646460008201527f7265737300000000000000000000000000000000000000000000000000000000602082015250565b600061236e602483611c8a565b915061237982612312565b604082019050919050565b6000602082019050818103600083015261239d81612361565b9050919050565b7f45524332303a20617070726f766520746f20746865207a65726f20616464726560008201527f7373000000000000000000000000000000000000000000000000000000000000602082015250565b6000612400602283611c8a565b915061240b826123a4565b604082019050919050565b6000602082019050818103600083015261242f816123f3565b9050919050565b7f4f776e61626c653a2063616c6c6572206973206e6f7420746865206f776e6572600082015250565b600061246c602083611c8a565b915061247782612436565b602082019050919050565b6000602082019050818103600083015261249b8161245f565b9050919050565b7f45524332303a20696e73756666696369656e7420616c6c6f77616e6365000000600082015250565b60006124d8601d83611c8a565b91506124e3826124a2565b602082019050919050565b60006020820190508181036000830152612507816124cb565b9050919050565b7f45524332303a207472616e736665722066726f6d20746865207a65726f20616460008201527f6472657373000000000000000000000000000000000000000000000000000000602082015250565b600061256a602583611c8a565b91506125758261250e565b604082019050919050565b600060208201905081810360008301526125998161255d565b9050919050565b7f45524332303a207472616e7366657220746f20746865207a65726f206164647260008201527f6573730000000000000000000000000000000000000000000000000000000000602082015250565b60006125fc602383611c8a565b9150612607826125a0565b604082019050919050565b6000602082019050818103600083015261262b816125ef565b9050919050565b7f45524332303a207472616e7366657220616d6f756e742065786365656473206260008201527f616c616e63650000000000000000000000000000000000000000000000000000602082015250565b600061268e602683611c8a565b915061269982612632565b604082019050919050565b600060208201905081810360008301526126bd81612681565b9050919050565b7f45524332303a206275726e2066726f6d20746865207a65726f2061646472657360008201527f7300000000000000000000000000000000000000000000000000000000000000602082015250565b6000612720602183611c8a565b915061272b826126c4565b604082019050919050565b6000602082019050818103600083015261274f81612713565b9050919050565b7f45524332303a206275726e20616d6f756e7420657863656564732062616c616e60008201527f6365000000000000000000000000000000000000000000000000000000000000602082015250565b60006127b2602283611c8a565b91506127bd82612756565b604082019050919050565b600060208201905081810360008301526127e1816127a5565b9050919050565b7f45524332303a206d696e7420746f20746865207a65726f206164647265737300600082015250565b600061281e601f83611c8a565b9150612829826127e8565b602082019050919050565b6000602082019050818103600083015261284d81612811565b9050919050565b7f4e487b7100000000000000000000000000000000000000000000000000000000600052605160045260246000fdfe436f6e67726174756c6174696f6e732e20596f752068617665207375636365737366756c6c7920707572636861736564207468652043616464792041766174617221417661696c61626c65204974656d7320617265206c69737465642062656c6f77203a20436f6e67726174756c6174696f6e732120596f752068617665207375636365737366756c6c7920707572636861736564207468652057756d70757321436f6e67726174756c6174696f6e732120596f752068617665207375636365737366756c6c792070757263686173656420746865206c6567656e6461727920457863616c6962757221436f6e67726174756c6174696f6e732e20596f752068617665207375636365737366756c6c7920707572636861736564207468652053746172746572205061636b2157656c636f6d6520746f20444547454e2053686f70210a417661696c61626c65204974656d7320617265206c69737465642062656c6f77203a200a3120457863616c6962757220202020323044474e0a322057756d70757320202020202020313044474e0a332044474e20417661746172202020203544474e0a342043616464792041766174617220203344474e0a352053746172746572205061636b20203244474e436f6e67726174756c6174696f6e732e20596f752068617665207375636365737366756c6c79207075726368617365642044474e2773204f6666696369616c2041766174617221a26469706673582212207ed3fd67cea12b63eb3ed4f3ef17367569235fe08aaa7756f12a825995de6c8564736f6c63430008120033",
  "linkReferences": {},
  "deployedLinkReferences": {}
}